{
  "_format": "hh-sol-artifact-1",
  "contractName": "NewLeaseContract",
  "sourceName": "contracts/NewContract.sol",
  "abi": [
    {
      "anonymous": false,
      "inputs": [
        {
          "indexed": true,
          "internalType": "address",
          "name": "leasee",
          "type": "address"
        },
        {
          "indexed": false,
          "internalType": "string",
          "name": "cid",
          "type": "string"
        }
      ],
      "name": "AccessTransferred",
      "type": "event"
    },
    {
      "anonymous": false,
      "inputs": [
        {
          "indexed": false,
          "internalType": "address",
          "name": "leaser",
          "type": "address"
        },
        {
          "indexed": false,
          "internalType": "string",
          "name": "cid",
          "type": "string"
        },
        {
          "indexed": false,
          "internalType": "uint256",
          "name": "duration",
          "type": "uint256"
        },
        {
          "indexed": false,
          "internalType": "uint256",
          "name": "payment",
          "type": "uint256"
        }
      ],
      "name": "DebugLeasingStarted",
      "type": "event"
    },
    {
      "anonymous": false,
      "inputs": [
        {
          "indexed": true,
          "internalType": "address",
          "name": "leaser",
          "type": "address"
        },
        {
          "indexed": false,
          "internalType": "string",
          "name": "cid",
          "type": "string"
        },
        {
          "indexed": false,
          "internalType": "uint256",
          "name": "duration",
          "type": "uint256"
        },
        {
          "indexed": false,
          "internalType": "uint256",
          "name": "payment",
          "type": "uint256"
        },
        {
          "indexed": false,
          "internalType": "uint256",
          "name": "startTime",
          "type": "uint256"
        }
      ],
      "name": "LeaseCreated",
      "type": "event"
    },
    {
      "anonymous": false,
      "inputs": [
        {
          "indexed": true,
          "internalType": "address",
          "name": "leaser",
          "type": "address"
        },
        {
          "indexed": false,
          "internalType": "string",
          "name": "cid",
          "type": "string"
        },
        {
          "indexed": false,
          "internalType": "uint256",
          "name": "duration",
          "type": "uint256"
        },
        {
          "indexed": false,
          "internalType": "uint256",
          "name": "payment",
          "type": "uint256"
        }
      ],
      "name": "LeaseUploaded",
      "type": "event"
    },
    {
      "anonymous": false,
      "inputs": [
        {
          "indexed": true,
          "internalType": "address",
          "name": "leaser",
          "type": "address"
        },
        {
          "indexed": true,
          "internalType": "address",
          "name": "leasee",
          "type": "address"
        },
        {
          "indexed": false,
          "internalType": "uint256",
          "name": "amount",
          "type": "uint256"
        }
      ],
      "name": "PaymentProcessed",
      "type": "event"
    },
    {
      "anonymous": false,
      "inputs": [
        {
          "indexed": true,
          "internalType": "address",
          "name": "leaser",
          "type": "address"
        },
        {
          "indexed": false,
          "internalType": "uint256",
          "name": "amount",
          "type": "uint256"
        }
      ],
      "name": "RefundProcessed",
      "type": "event"
    },
    {
      "inputs": [
        {
          "internalType": "string",
          "name": "",
          "type": "string"
        }
      ],
      "name": "cidExists",
      "outputs": [
        {
          "internalType": "bool",
          "name": "",
          "type": "bool"
        }
      ],
      "stateMutability": "view",
      "type": "function"
    },
    {
      "inputs": [
        {
          "internalType": "string",
          "name": "",
          "type": "string"
        }
      ],
      "name": "cidToLeaser",
      "outputs": [
        {
          "internalType": "address",
          "name": "",
          "type": "address"
        }
      ],
      "stateMutability": "view",
      "type": "function"
    },
    {
      "inputs": [
        {
          "internalType": "uint256",
          "name": "",
          "type": "uint256"
        }
      ],
      "name": "cids",
      "outputs": [
        {
          "internalType": "string",
          "name": "",
          "type": "string"
        }
      ],
      "stateMutability": "view",
      "type": "function"
    },
    {
      "inputs": [],
      "name": "getAllUploads",
      "outputs": [
        {
          "internalType": "string[]",
          "name": "allCids",
          "type": "string[]"
        },
        {
          "internalType": "address[]",
          "name": "allLeasers",
          "type": "address[]"
        }
      ],
      "stateMutability": "view",
      "type": "function"
    },
    {
      "inputs": [
        {
          "internalType": "string",
          "name": "_cid",
          "type": "string"
        }
      ],
      "name": "getLeaseDetails",
      "outputs": [
        {
          "internalType": "address",
          "name": "leaser",
          "type": "address"
        },
        {
          "internalType": "uint256",
          "name": "duration",
          "type": "uint256"
        },
        {
          "internalType": "uint256",
          "name": "payment",
          "type": "uint256"
        }
      ],
      "stateMutability": "view",
      "type": "function"
    },
    {
      "inputs": [
        {
          "internalType": "string",
          "name": "_cid",
          "type": "string"
        }
      ],
      "name": "isCIDLeased",
      "outputs": [
        {
          "internalType": "bool",
          "name": "",
          "type": "bool"
        }
      ],
      "stateMutability": "view",
      "type": "function"
    },
    {
      "inputs": [
        {
          "internalType": "address",
          "name": "",
          "type": "address"
        }
      ],
      "name": "leaseExists",
      "outputs": [
        {
          "internalType": "bool",
          "name": "",
          "type": "bool"
        }
      ],
      "stateMutability": "view",
      "type": "function"
    },
    {
      "inputs": [
        {
          "internalType": "string",
          "name": "",
          "type": "string"
        }
      ],
      "name": "leasedCIDs",
      "outputs": [
        {
          "internalType": "bool",
          "name": "",
          "type": "bool"
        }
      ],
      "stateMutability": "view",
      "type": "function"
    },
    {
      "inputs": [
        {
          "internalType": "address",
          "name": "",
          "type": "address"
        }
      ],
      "name": "leases",
      "outputs": [
        {
          "internalType": "address",
          "name": "leaser",
          "type": "address"
        },
        {
          "internalType": "string",
          "name": "cid",
          "type": "string"
        },
        {
          "internalType": "uint256",
          "name": "duration",
          "type": "uint256"
        },
        {
          "internalType": "uint256",
          "name": "payment",
          "type": "uint256"
        },
        {
          "internalType": "uint256",
          "name": "startTime",
          "type": "uint256"
        }
      ],
      "stateMutability": "view",
      "type": "function"
    },
    {
      "inputs": [
        {
          "internalType": "string",
          "name": "_cid",
          "type": "string"
        },
        {
          "internalType": "uint256",
          "name": "_duration",
          "type": "uint256"
        },
        {
          "internalType": "uint256",
          "name": "_payment",
          "type": "uint256"
        }
      ],
      "name": "leasing",
      "outputs": [],
      "stateMutability": "nonpayable",
      "type": "function"
    },
    {
      "inputs": [
        {
          "internalType": "address",
          "name": "_leaser",
          "type": "address"
        },
        {
          "internalType": "address",
          "name": "_leasee",
          "type": "address"
        },
        {
          "internalType": "uint256",
          "name": "_amount",
          "type": "uint256"
        }
      ],
      "name": "payment",
      "outputs": [],
      "stateMutability": "nonpayable",
      "type": "function"
    },
    {
      "inputs": [],
      "name": "refund",
      "outputs": [],
      "stateMutability": "nonpayable",
      "type": "function"
    },
    {
      "inputs": [
        {
          "internalType": "string",
          "name": "_cid",
          "type": "string"
        },
        {
          "internalType": "uint256",
          "name": "_duration",
          "type": "uint256"
        },
        {
          "internalType": "uint256",
          "name": "_payment",
          "type": "uint256"
        }
      ],
      "name": "uploadLease",
      "outputs": [],
      "stateMutability": "nonpayable",
      "type": "function"
    }
  ],
  "bytecode": "0x608060405234801561001057600080fd5b5061284d806100206000396000f3fe608060405234801561001057600080fd5b50600436106100cf5760003560e01c8063bfc289b81161008c578063e6bac6bb11610066578063e6bac6bb1461023d578063ec77f5931461026f578063fd74d4cc1461028b578063fe57acee146102a7576100cf565b8063bfc289b8146101ba578063d74d1f43146101ea578063e4d57bc61461021e576100cf565b806330dfd405146100d4578063590e1ae314610104578063704fe7101461010e57806399b23dc31461013e578063a77015d11461015a578063acaf6a281461018a575b600080fd5b6100ee60048036038101906100e99190611986565b6102d7565b6040516100fb91906119ea565b60405180910390f35b61010c61030d565b005b61012860048036038101906101239190611a3b565b6106cc565b6040516101359190611ae7565b60405180910390f35b61015860048036038101906101539190611b67565b610778565b005b610174600480360381019061016f9190611986565b610a35565b60405161018191906119ea565b60405180910390f35b6101a4600480360381019061019f9190611986565b610a6b565b6040516101b191906119ea565b60405180910390f35b6101d460048036038101906101cf9190611bba565b610aa0565b6040516101e191906119ea565b60405180910390f35b61020460048036038101906101ff9190611bba565b610ac0565b604051610215959493929190611c05565b60405180910390f35b610226610b9e565b604051610234929190611e29565b60405180910390f35b61025760048036038101906102529190611986565b610e26565b60405161026693929190611e60565b60405180910390f35b61028960048036038101906102849190611e97565b611044565b005b6102a560048036038101906102a09190611e97565b6111d0565b005b6102c160048036038101906102bc9190611986565b6114fa565b6040516102ce9190611f06565b60405180910390f35b6004818051602081018201805184825260208301602085012081835280955050505050506000915054906101000a900460ff1681565b33600160008273ffffffffffffffffffffffffffffffffffffffff1673ffffffffffffffffffffffffffffffffffffffff16815260200190815260200160002060009054906101000a900460ff1661039a576040517f08c379a000000000000000000000000000000000000000000000000000000000815260040161039190611f6d565b60405180910390fd5b60008060003373ffffffffffffffffffffffffffffffffffffffff1673ffffffffffffffffffffffffffffffffffffffff1681526020019081526020016000206040518060a00160405290816000820160009054906101000a900473ffffffffffffffffffffffffffffffffffffffff1673ffffffffffffffffffffffffffffffffffffffff1673ffffffffffffffffffffffffffffffffffffffff16815260200160018201805461044b90611fbc565b80601f016020809104026020016040519081016040528092919081815260200182805461047790611fbc565b80156104c45780601f10610499576101008083540402835291602001916104c4565b820191906000526020600020905b8154815290600101906020018083116104a757829003601f168201915b505050505081526020016002820154815260200160038201548152602001600482015481525050905080604001518160800151610501919061201c565b421015610543576040517f08c379a000000000000000000000000000000000000000000000000000000000815260040161053a9061209c565b60405180910390fd5b3373ffffffffffffffffffffffffffffffffffffffff166108fc82606001519081150290604051600060405180830381858888f1935050505015801561058d573d6000803e3d6000fd5b503373ffffffffffffffffffffffffffffffffffffffff167f3367befd2b2f39615cd79917c2153263c4af1d3945ec003e5d5bfc13a8d8583382606001516040516105d891906120bc565b60405180910390a26000803373ffffffffffffffffffffffffffffffffffffffff1673ffffffffffffffffffffffffffffffffffffffff168152602001908152602001600020600080820160006101000a81549073ffffffffffffffffffffffffffffffffffffffff021916905560018201600061065691906117cf565b60028201600090556003820160009055600482016000905550506000600160003373ffffffffffffffffffffffffffffffffffffffff1673ffffffffffffffffffffffffffffffffffffffff16815260200190815260200160002060006101000a81548160ff0219169083151502179055505050565b600581815481106106dc57600080fd5b9060005260206000200160009150905080546106f790611fbc565b80601f016020809104026020016040519081016040528092919081815260200182805461072390611fbc565b80156107705780601f1061074557610100808354040283529160200191610770565b820191906000526020600020905b81548152906001019060200180831161075357829003601f168201915b505050505081565b8173ffffffffffffffffffffffffffffffffffffffff163373ffffffffffffffffffffffffffffffffffffffff16146107e6576040517f08c379a00000000000000000000000000000000000000000000000000000000081526004016107dd90612123565b60405180910390fd5b8273ffffffffffffffffffffffffffffffffffffffff166000808573ffffffffffffffffffffffffffffffffffffffff1673ffffffffffffffffffffffffffffffffffffffff16815260200190815260200160002060000160009054906101000a900473ffffffffffffffffffffffffffffffffffffffff1673ffffffffffffffffffffffffffffffffffffffff16146108b5576040517f08c379a00000000000000000000000000000000000000000000000000000000081526004016108ac9061218f565b60405180910390fd5b3373ffffffffffffffffffffffffffffffffffffffff166000808573ffffffffffffffffffffffffffffffffffffffff1673ffffffffffffffffffffffffffffffffffffffff16815260200190815260200160002060000160009054906101000a900473ffffffffffffffffffffffffffffffffffffffff1673ffffffffffffffffffffffffffffffffffffffff1614610984576040517f08c379a000000000000000000000000000000000000000000000000000000000815260040161097b906121fb565b60405180910390fd5b8273ffffffffffffffffffffffffffffffffffffffff166108fc829081150290604051600060405180830381858888f193505050501580156109ca573d6000803e3d6000fd5b508173ffffffffffffffffffffffffffffffffffffffff168373ffffffffffffffffffffffffffffffffffffffff167f0538ab32a957d2b55d0ec70a4029e73fdf19f500832839b1d7bafcfbca2a563083604051610a2891906120bc565b60405180910390a3505050565b6003818051602081018201805184825260208301602085012081835280955050505050506000915054906101000a900460ff1681565b6000600482604051610a7d9190612257565b908152602001604051809103902060009054906101000a900460ff169050919050565b60016020528060005260406000206000915054906101000a900460ff1681565b60006020528060005260406000206000915090508060000160009054906101000a900473ffffffffffffffffffffffffffffffffffffffff1690806001018054610b0990611fbc565b80601f0160208091040260200160405190810160405280929190818152602001828054610b3590611fbc565b8015610b825780601f10610b5757610100808354040283529160200191610b82565b820191906000526020600020905b815481529060010190602001808311610b6557829003601f168201915b5050505050908060020154908060030154908060040154905085565b606080600060058054905090508067ffffffffffffffff811115610bc557610bc461185b565b5b604051908082528060200260200182016040528015610bf857816020015b6060815260200190600190039081610be35790505b5092508067ffffffffffffffff811115610c1557610c1461185b565b5b604051908082528060200260200182016040528015610c435781602001602082028036833780820191505090505b50915060005b81811015610e2057600460058281548110610c6757610c6661226e565b5b90600052602060002001604051610c7e9190612335565b908152602001604051809103902060009054906101000a900460ff16610e0d5760058181548110610cb257610cb161226e565b5b906000526020600020018054610cc790611fbc565b80601f0160208091040260200160405190810160405280929190818152602001828054610cf390611fbc565b8015610d405780601f10610d1557610100808354040283529160200191610d40565b820191906000526020600020905b815481529060010190602001808311610d2357829003601f168201915b5050505050848281518110610d5857610d5761226e565b5b6020026020010181905250600260058281548110610d7957610d7861226e565b5b90600052602060002001604051610d909190612335565b908152602001604051809103902060009054906101000a900473ffffffffffffffffffffffffffffffffffffffff16838281518110610dd257610dd161226e565b5b602002602001019073ffffffffffffffffffffffffffffffffffffffff16908173ffffffffffffffffffffffffffffffffffffffff16815250505b8080610e189061234c565b915050610c49565b50509091565b6000806000600384604051610e3b9190612257565b908152602001604051809103902060009054906101000a900460ff16610e96576040517f08c379a0000000000000000000000000000000000000000000000000000000008152600401610e8d906123e0565b60405180910390fd5b6000806000600287604051610eab9190612257565b908152602001604051809103902060009054906101000a900473ffffffffffffffffffffffffffffffffffffffff1673ffffffffffffffffffffffffffffffffffffffff1673ffffffffffffffffffffffffffffffffffffffff1681526020019081526020016000206040518060a00160405290816000820160009054906101000a900473ffffffffffffffffffffffffffffffffffffffff1673ffffffffffffffffffffffffffffffffffffffff1673ffffffffffffffffffffffffffffffffffffffff168152602001600182018054610f8590611fbc565b80601f0160208091040260200160405190810160405280929190818152602001828054610fb190611fbc565b8015610ffe5780601f10610fd357610100808354040283529160200191610ffe565b820191906000526020600020905b815481529060010190602001808311610fe157829003601f168201915b5050505050815260200160028201548152602001600382015481526020016004820154815250509050806000015181604001518260600151935093509350509193909250565b6003836040516110549190612257565b908152602001604051809103902060009054906101000a900460ff16156110b0576040517f08c379a00000000000000000000000000000000000000000000000000000000081526004016110a79061244c565b60405180910390fd5b60016003846040516110c29190612257565b908152602001604051809103902060006101000a81548160ff021916908315150217905550336002846040516110f89190612257565b908152602001604051809103902060006101000a81548173ffffffffffffffffffffffffffffffffffffffff021916908373ffffffffffffffffffffffffffffffffffffffff1602179055506005839080600181540180825580915050600190039060005260206000200160009091909190915090816111789190612603565b503373ffffffffffffffffffffffffffffffffffffffff167f67673c51b25f2131b208095367651687426e5c88a0b7430fbcfd6c04af9a51218484846040516111c3939291906126d5565b60405180910390a2505050565b6003836040516111e09190612257565b908152602001604051809103902060009054906101000a900460ff161561123c576040517f08c379a00000000000000000000000000000000000000000000000000000000081526004016112339061244c565b60405180910390fd5b7fb732eb5251e5cbbdea0ef423b0f1dcca6c0de948255e39f211e68029c8cde244338484846040516112719493929190612713565b60405180910390a160006040518060a001604052803373ffffffffffffffffffffffffffffffffffffffff168152602001858152602001848152602001838152602001428152509050806000803373ffffffffffffffffffffffffffffffffffffffff1673ffffffffffffffffffffffffffffffffffffffff16815260200190815260200160002060008201518160000160006101000a81548173ffffffffffffffffffffffffffffffffffffffff021916908373ffffffffffffffffffffffffffffffffffffffff16021790555060208201518160010190816113559190612603565b5060408201518160020155606082015181600301556080820151816004015590505060018060003373ffffffffffffffffffffffffffffffffffffffff1673ffffffffffffffffffffffffffffffffffffffff16815260200190815260200160002060006101000a81548160ff021916908315150217905550336002856040516113df9190612257565b908152602001604051809103902060006101000a81548173ffffffffffffffffffffffffffffffffffffffff021916908373ffffffffffffffffffffffffffffffffffffffff160217905550600160038560405161143d9190612257565b908152602001604051809103902060006101000a81548160ff0219169083151502179055506005849080600181540180825580915050600190039060005260206000200160009091909190915090816114969190612603565b503373ffffffffffffffffffffffffffffffffffffffff167f728120f36e7f43ad34af68eb16d524394d0d0eaa58a1baed0eaf3cfa50697c54858585426040516114e3949392919061275f565b60405180910390a26114f433611543565b50505050565b6002818051602081018201805184825260208301602085012081835280955050505050506000915054906101000a900473ffffffffffffffffffffffffffffffffffffffff1681565b33600160008273ffffffffffffffffffffffffffffffffffffffff1673ffffffffffffffffffffffffffffffffffffffff16815260200190815260200160002060009054906101000a900460ff166115d0576040517f08c379a00000000000000000000000000000000000000000000000000000000081526004016115c790611f6d565b60405180910390fd5b60008060003373ffffffffffffffffffffffffffffffffffffffff1673ffffffffffffffffffffffffffffffffffffffff1681526020019081526020016000206040518060a00160405290816000820160009054906101000a900473ffffffffffffffffffffffffffffffffffffffff1673ffffffffffffffffffffffffffffffffffffffff1673ffffffffffffffffffffffffffffffffffffffff16815260200160018201805461168190611fbc565b80601f01602080910402602001604051908101604052809291908181526020018280546116ad90611fbc565b80156116fa5780601f106116cf576101008083540402835291602001916116fa565b820191906000526020600020905b8154815290600101906020018083116116dd57829003601f168201915b505050505081526020016002820154815260200160038201548152602001600482015481525050905080604001518160800151611737919061201c565b4210611778576040517f08c379a000000000000000000000000000000000000000000000000000000000815260040161176f906127f7565b60405180910390fd5b8273ffffffffffffffffffffffffffffffffffffffff167fa87e62a19990d72f49f9c30f3ba18b78efa3eb6816aaf9ca3c4d4d7b48fe1bcd82602001516040516117c29190611ae7565b60405180910390a2505050565b5080546117db90611fbc565b6000825580601f106117ed575061180c565b601f01602090049060005260206000209081019061180b919061180f565b5b50565b5b80821115611828576000816000905550600101611810565b5090565b6000604051905090565b600080fd5b600080fd5b600080fd5b600080fd5b6000601f19601f8301169050919050565b7f4e487b7100000000000000000000000000000000000000000000000000000000600052604160045260246000fd5b6118938261184a565b810181811067ffffffffffffffff821117156118b2576118b161185b565b5b80604052505050565b60006118c561182c565b90506118d1828261188a565b919050565b600067ffffffffffffffff8211156118f1576118f061185b565b5b6118fa8261184a565b9050602081019050919050565b82818337600083830152505050565b6000611929611924846118d6565b6118bb565b90508281526020810184848401111561194557611944611845565b5b611950848285611907565b509392505050565b600082601f83011261196d5761196c611840565b5b813561197d848260208601611916565b91505092915050565b60006020828403121561199c5761199b611836565b5b600082013567ffffffffffffffff8111156119ba576119b961183b565b5b6119c684828501611958565b91505092915050565b60008115159050919050565b6119e4816119cf565b82525050565b60006020820190506119ff60008301846119db565b92915050565b6000819050919050565b611a1881611a05565b8114611a2357600080fd5b50565b600081359050611a3581611a0f565b92915050565b600060208284031215611a5157611a50611836565b5b6000611a5f84828501611a26565b91505092915050565b600081519050919050565b600082825260208201905092915050565b60005b83811015611aa2578082015181840152602081019050611a87565b60008484015250505050565b6000611ab982611a68565b611ac38185611a73565b9350611ad3818560208601611a84565b611adc8161184a565b840191505092915050565b60006020820190508181036000830152611b018184611aae565b905092915050565b600073ffffffffffffffffffffffffffffffffffffffff82169050919050565b6000611b3482611b09565b9050919050565b611b4481611b29565b8114611b4f57600080fd5b50565b600081359050611b6181611b3b565b92915050565b600080600060608486031215611b8057611b7f611836565b5b6000611b8e86828701611b52565b9350506020611b9f86828701611b52565b9250506040611bb086828701611a26565b9150509250925092565b600060208284031215611bd057611bcf611836565b5b6000611bde84828501611b52565b91505092915050565b611bf081611b29565b82525050565b611bff81611a05565b82525050565b600060a082019050611c1a6000830188611be7565b8181036020830152611c2c8187611aae565b9050611c3b6040830186611bf6565b611c486060830185611bf6565b611c556080830184611bf6565b9695505050505050565b600081519050919050565b600082825260208201905092915050565b6000819050602082019050919050565b600082825260208201905092915050565b6000611ca782611a68565b611cb18185611c8b565b9350611cc1818560208601611a84565b611cca8161184a565b840191505092915050565b6000611ce18383611c9c565b905092915050565b6000602082019050919050565b6000611d0182611c5f565b611d0b8185611c6a565b935083602082028501611d1d85611c7b565b8060005b85811015611d595784840389528151611d3a8582611cd5565b9450611d4583611ce9565b925060208a01995050600181019050611d21565b50829750879550505050505092915050565b600081519050919050565b600082825260208201905092915050565b6000819050602082019050919050565b611da081611b29565b82525050565b6000611db28383611d97565b60208301905092915050565b6000602082019050919050565b6000611dd682611d6b565b611de08185611d76565b9350611deb83611d87565b8060005b83811015611e1c578151611e038882611da6565b9750611e0e83611dbe565b925050600181019050611def565b5085935050505092915050565b60006040820190508181036000830152611e438185611cf6565b90508181036020830152611e578184611dcb565b90509392505050565b6000606082019050611e756000830186611be7565b611e826020830185611bf6565b611e8f6040830184611bf6565b949350505050565b600080600060608486031215611eb057611eaf611836565b5b600084013567ffffffffffffffff811115611ece57611ecd61183b565b5b611eda86828701611958565b9350506020611eeb86828701611a26565b9250506040611efc86828701611a26565b9150509250925092565b6000602082019050611f1b6000830184611be7565b92915050565b7f4c6561736520646f6573206e6f74206578697374000000000000000000000000600082015250565b6000611f57601483611a73565b9150611f6282611f21565b602082019050919050565b60006020820190508181036000830152611f8681611f4a565b9050919050565b7f4e487b7100000000000000000000000000000000000000000000000000000000600052602260045260246000fd5b60006002820490506001821680611fd457607f821691505b602082108103611fe757611fe6611f8d565b5b50919050565b7f4e487b7100000000000000000000000000000000000000000000000000000000600052601160045260246000fd5b600061202782611a05565b915061203283611a05565b925082820190508082111561204a57612049611fed565b5b92915050565b7f4c65617365206475726174696f6e206e6f742065787069726564000000000000600082015250565b6000612086601a83611a73565b915061209182612050565b602082019050919050565b600060208201905081810360008301526120b581612079565b9050919050565b60006020820190506120d16000830184611bf6565b92915050565b7f4f6e6c79206c65617365652063616e206d616b65207061796d656e7400000000600082015250565b600061210d601c83611a73565b9150612118826120d7565b602082019050919050565b6000602082019050818103600083015261213c81612100565b9050919050565b7f4c6561736572206e6f7420666f756e6400000000000000000000000000000000600082015250565b6000612179601083611a73565b915061218482612143565b602082019050919050565b600060208201905081810360008301526121a88161216c565b9050919050565b7f53656e646572206e6f7420617574686f72697a65640000000000000000000000600082015250565b60006121e5601583611a73565b91506121f0826121af565b602082019050919050565b60006020820190508181036000830152612214816121d8565b9050919050565b600081905092915050565b600061223182611a68565b61223b818561221b565b935061224b818560208601611a84565b80840191505092915050565b60006122638284612226565b915081905092915050565b7f4e487b7100000000000000000000000000000000000000000000000000000000600052603260045260246000fd5b60008190508160005260206000209050919050565b600081546122bf81611fbc565b6122c9818661221b565b945060018216600081146122e457600181146122f95761232c565b60ff198316865281151582028601935061232c565b6123028561229d565b60005b8381101561232457815481890152600182019150602081019050612305565b838801955050505b50505092915050565b600061234182846122b2565b915081905092915050565b600061235782611a05565b91507fffffffffffffffffffffffffffffffffffffffffffffffffffffffffffffffff820361238957612388611fed565b5b600182019050919050565b7f43494420646f6573206e6f742065786973740000000000000000000000000000600082015250565b60006123ca601283611a73565b91506123d582612394565b602082019050919050565b600060208201905081810360008301526123f9816123bd565b9050919050565b7f43494420616c7265616479206578697374730000000000000000000000000000600082015250565b6000612436601283611a73565b915061244182612400565b602082019050919050565b6000602082019050818103600083015261246581612429565b9050919050565b60006020601f8301049050919050565b600082821b905092915050565b6000600883026124b97fffffffffffffffffffffffffffffffffffffffffffffffffffffffffffffffff8261247c565b6124c3868361247c565b95508019841693508086168417925050509392505050565b6000819050919050565b60006125006124fb6124f684611a05565b6124db565b611a05565b9050919050565b6000819050919050565b61251a836124e5565b61252e61252682612507565b848454612489565b825550505050565b600090565b612543612536565b61254e818484612511565b505050565b5b818110156125725761256760008261253b565b600181019050612554565b5050565b601f8211156125b7576125888161229d565b6125918461246c565b810160208510156125a0578190505b6125b46125ac8561246c565b830182612553565b50505b505050565b600082821c905092915050565b60006125da600019846008026125bc565b1980831691505092915050565b60006125f383836125c9565b9150826002028217905092915050565b61260c82611a68565b67ffffffffffffffff8111156126255761262461185b565b5b61262f8254611fbc565b61263a828285612576565b600060209050601f83116001811461266d576000841561265b578287015190505b61266585826125e7565b8655506126cd565b601f19841661267b8661229d565b60005b828110156126a35784890151825560018201915060208501945060208101905061267e565b868310156126c057848901516126bc601f8916826125c9565b8355505b6001600288020188555050505b505050505050565b600060608201905081810360008301526126ef8186611aae565b90506126fe6020830185611bf6565b61270b6040830184611bf6565b949350505050565b60006080820190506127286000830187611be7565b818103602083015261273a8186611aae565b90506127496040830185611bf6565b6127566060830184611bf6565b95945050505050565b600060808201905081810360008301526127798187611aae565b90506127886020830186611bf6565b6127956040830185611bf6565b6127a26060830184611bf6565b95945050505050565b7f4c65617365206475726174696f6e206578706972656400000000000000000000600082015250565b60006127e1601683611a73565b91506127ec826127ab565b602082019050919050565b60006020820190508181036000830152612810816127d4565b905091905056fea26469706673582212208f8b4a42671d462eb6f28f7f04836d7cc517beb0bc6f063e7592c217e359c12664736f6c63430008140033",
  "linkReferences": {},
  "deployedLinkReferences": {}
}