{
  "_format": "hh-sol-artifact-1",
  "contractName": "DataLeasing",
  "sourceName": "contracts/DataLeasing.sol",
  "abi": [
    {
      "inputs": [],
      "stateMutability": "nonpayable",
      "type": "constructor"
    },
    {
      "anonymous": false,
      "inputs": [
        {
          "indexed": true,
          "internalType": "address",
          "name": "uploader",
          "type": "address"
        },
        {
          "indexed": true,
          "internalType": "address",
          "name": "user",
          "type": "address"
        },
        {
          "indexed": true,
          "internalType": "uint256",
          "name": "dataId",
          "type": "uint256"
        },
        {
          "indexed": false,
          "internalType": "uint256",
          "name": "duration",
          "type": "uint256"
        }
      ],
      "name": "DataLeased",
      "type": "event"
    },
    {
      "anonymous": false,
      "inputs": [
        {
          "indexed": true,
          "internalType": "address",
          "name": "uploader",
          "type": "address"
        },
        {
          "indexed": true,
          "internalType": "uint256",
          "name": "dataId",
          "type": "uint256"
        },
        {
          "indexed": false,
          "internalType": "string",
          "name": "description",
          "type": "string"
        },
        {
          "indexed": false,
          "internalType": "uint256",
          "name": "price",
          "type": "uint256"
        }
      ],
      "name": "DataUploaded",
      "type": "event"
    },
    {
      "anonymous": false,
      "inputs": [
        {
          "indexed": true,
          "internalType": "address",
          "name": "uploader",
          "type": "address"
        },
        {
          "indexed": true,
          "internalType": "uint256",
          "name": "dataId",
          "type": "uint256"
        }
      ],
      "name": "OwnershipTransferred",
      "type": "event"
    },
    {
      "inputs": [
        {
          "internalType": "uint256",
          "name": "dataId",
          "type": "uint256"
        }
      ],
      "name": "accessData",
      "outputs": [],
      "stateMutability": "nonpayable",
      "type": "function"
    },
    {
      "inputs": [],
      "name": "datasetCount",
      "outputs": [
        {
          "internalType": "uint256",
          "name": "",
          "type": "uint256"
        }
      ],
      "stateMutability": "view",
      "type": "function"
    },
    {
      "inputs": [
        {
          "internalType": "uint256",
          "name": "",
          "type": "uint256"
        }
      ],
      "name": "datasets",
      "outputs": [
        {
          "internalType": "string",
          "name": "description",
          "type": "string"
        },
        {
          "internalType": "uint256",
          "name": "price",
          "type": "uint256"
        },
        {
          "internalType": "address",
          "name": "uploader",
          "type": "address"
        },
        {
          "internalType": "bool",
          "name": "available",
          "type": "bool"
        }
      ],
      "stateMutability": "view",
      "type": "function"
    },
    {
      "inputs": [
        {
          "internalType": "uint256",
          "name": "dataId",
          "type": "uint256"
        }
      ],
      "name": "getDataOwner",
      "outputs": [
        {
          "internalType": "address",
          "name": "",
          "type": "address"
        }
      ],
      "stateMutability": "view",
      "type": "function"
    },
    {
      "inputs": [],
      "name": "getUserDatasets",
      "outputs": [
        {
          "internalType": "uint256[]",
          "name": "",
          "type": "uint256[]"
        }
      ],
      "stateMutability": "view",
      "type": "function"
    },
    {
      "inputs": [
        {
          "internalType": "uint256",
          "name": "dataId",
          "type": "uint256"
        },
        {
          "internalType": "uint256",
          "name": "duration",
          "type": "uint256"
        }
      ],
      "name": "leaseData",
      "outputs": [],
      "stateMutability": "payable",
      "type": "function"
    },
    {
      "inputs": [
        {
          "internalType": "uint256",
          "name": "",
          "type": "uint256"
        },
        {
          "internalType": "address",
          "name": "",
          "type": "address"
        }
      ],
      "name": "leasedData",
      "outputs": [
        {
          "internalType": "uint256",
          "name": "duration",
          "type": "uint256"
        },
        {
          "internalType": "uint256",
          "name": "startTime",
          "type": "uint256"
        }
      ],
      "stateMutability": "view",
      "type": "function"
    },
    {
      "inputs": [],
      "name": "owner",
      "outputs": [
        {
          "internalType": "address",
          "name": "",
          "type": "address"
        }
      ],
      "stateMutability": "view",
      "type": "function"
    },
    {
      "inputs": [
        {
          "internalType": "string",
          "name": "description",
          "type": "string"
        },
        {
          "internalType": "uint256",
          "name": "price",
          "type": "uint256"
        }
      ],
      "name": "uploadData",
      "outputs": [],
      "stateMutability": "nonpayable",
      "type": "function"
    },
    {
      "inputs": [
        {
          "internalType": "address",
          "name": "",
          "type": "address"
        },
        {
          "internalType": "uint256",
          "name": "",
          "type": "uint256"
        }
      ],
      "name": "userDatasets",
      "outputs": [
        {
          "internalType": "uint256",
          "name": "",
          "type": "uint256"
        }
      ],
      "stateMutability": "view",
      "type": "function"
    },
    {
      "inputs": [],
      "name": "withdraw",
      "outputs": [],
      "stateMutability": "nonpayable",
      "type": "function"
    },
    {
      "inputs": [],
      "name": "withdrawOwner",
      "outputs": [],
      "stateMutability": "nonpayable",
      "type": "function"
    }
  ],
  "bytecode": "0x608060405234801561001057600080fd5b50336000806101000a81548173ffffffffffffffffffffffffffffffffffffffff021916908373ffffffffffffffffffffffffffffffffffffffff160217905550611bfa806100606000396000f3fe6080604052600436106100a75760003560e01c80637fb20a42116100645780637fb20a42146101bf5780638da5cb5b146101fd578063a7c819af14610228578063add45cb114610251578063e8cc00ad1461028e578063fb8883c2146102a5576100a7565b80631cff85e1146100ac5780632129e8e1146100ec5780633c8935b9146101175780633ccfd60b1461014257806348e6ce3f1461015957806353177c9f14610196575b600080fd5b3480156100b857600080fd5b506100d360048036038101906100ce9190610e77565b6102c1565b6040516100e39493929190610f9f565b60405180910390f35b3480156100f857600080fd5b506101016103a6565b60405161010e91906110a9565b60405180910390f35b34801561012357600080fd5b5061012c61043b565b60405161013991906110cb565b60405180910390f35b34801561014e57600080fd5b50610157610441565b005b34801561016557600080fd5b50610180600480360381019061017b9190610e77565b6104d3565b60405161018d91906110e6565b60405180910390f35b3480156101a257600080fd5b506101bd60048036038101906101b89190610e77565b610513565b005b3480156101cb57600080fd5b506101e660048036038101906101e1919061112d565b61070a565b6040516101f492919061116d565b60405180910390f35b34801561020957600080fd5b5061021261073b565b60405161021f91906110e6565b60405180910390f35b34801561023457600080fd5b5061024f600480360381019061024a91906112cb565b61075f565b005b34801561025d57600080fd5b5061027860048036038101906102739190611327565b610998565b60405161028591906110cb565b60405180910390f35b34801561029a57600080fd5b506102a36109c9565b005b6102bf60048036038101906102ba9190611367565b610b09565b005b60026020528060005260406000206000915090508060000180546102e4906113d6565b80601f0160208091040260200160405190810160405280929190818152602001828054610310906113d6565b801561035d5780601f106103325761010080835404028352916020019161035d565b820191906000526020600020905b81548152906001019060200180831161034057829003601f168201915b5050505050908060010154908060020160009054906101000a900473ffffffffffffffffffffffffffffffffffffffff16908060020160149054906101000a900460ff16905084565b6060600360003373ffffffffffffffffffffffffffffffffffffffff1673ffffffffffffffffffffffffffffffffffffffff16815260200190815260200160002080548060200260200160405190810160405280929190818152602001828054801561043157602002820191906000526020600020905b81548152602001906001019080831161041d575b5050505050905090565b60015481565b600047905060008111610489576040517f08c379a000000000000000000000000000000000000000000000000000000000815260040161048090611453565b60405180910390fd5b3373ffffffffffffffffffffffffffffffffffffffff166108fc829081150290604051600060405180830381858888f193505050501580156104cf573d6000803e3d6000fd5b5050565b60006002600083815260200190815260200160002060020160009054906101000a900473ffffffffffffffffffffffffffffffffffffffff169050919050565b600061051e826104d3565b9050600073ffffffffffffffffffffffffffffffffffffffff168173ffffffffffffffffffffffffffffffffffffffff160361058f576040517f08c379a0000000000000000000000000000000000000000000000000000000008152600401610586906114bf565b60405180910390fd5b60006004600084815260200190815260200160002060003373ffffffffffffffffffffffffffffffffffffffff1673ffffffffffffffffffffffffffffffffffffffff16815260200190815260200160002060405180604001604052908160008201548152602001600182015481525050905080600001518160200151610616919061150e565b421015610658576040517f08c379a000000000000000000000000000000000000000000000000000000000815260040161064f9061158e565b60405180910390fd5b828273ffffffffffffffffffffffffffffffffffffffff167fbf0996050d830a4094913360f3aca6a3d35dc19fbda52e1f983f5e1e3c5f8f2d60405160405180910390a360026000848152602001908152602001600020600080820160006106c09190610dd0565b60018201600090556002820160006101000a81549073ffffffffffffffffffffffffffffffffffffffff02191690556002820160146101000a81549060ff02191690555050505050565b6004602052816000526040600020602052806000526040600020600091509150508060000154908060010154905082565b60008054906101000a900473ffffffffffffffffffffffffffffffffffffffff1681565b60008251116107a3576040517f08c379a000000000000000000000000000000000000000000000000000000000815260040161079a906115fa565b60405180910390fd5b600081116107e6576040517f08c379a00000000000000000000000000000000000000000000000000000000081526004016107dd9061168c565b60405180910390fd5b6000600154905060405180608001604052808481526020018381526020013373ffffffffffffffffffffffffffffffffffffffff1681526020016001151581525060026000838152602001908152602001600020600082015181600001908161084f9190611858565b506020820151816001015560408201518160020160006101000a81548173ffffffffffffffffffffffffffffffffffffffff021916908373ffffffffffffffffffffffffffffffffffffffff16021790555060608201518160020160146101000a81548160ff021916908315150217905550905050600360003373ffffffffffffffffffffffffffffffffffffffff1673ffffffffffffffffffffffffffffffffffffffff1681526020019081526020016000208190806001815401808255809150506001900390600052602060002001600090919091909150556001600081548092919061093d9061192a565b9190505550803373ffffffffffffffffffffffffffffffffffffffff167f533999d6a94ed7593116634740d8c7709832871e931c8ec61ac00e619f14250d858560405161098b929190611972565b60405180910390a3505050565b600360205281600052604060002081815481106109b457600080fd5b90600052602060002001600091509150505481565b60008054906101000a900473ffffffffffffffffffffffffffffffffffffffff1673ffffffffffffffffffffffffffffffffffffffff163373ffffffffffffffffffffffffffffffffffffffff1614610a57576040517f08c379a0000000000000000000000000000000000000000000000000000000008152600401610a4e90611a14565b60405180910390fd5b600047905060008111610a9f576040517f08c379a0000000000000000000000000000000000000000000000000000000008152600401610a9690611453565b60405180910390fd5b60008054906101000a900473ffffffffffffffffffffffffffffffffffffffff1673ffffffffffffffffffffffffffffffffffffffff166108fc829081150290604051600060405180830381858888f19350505050158015610b05573d6000803e3d6000fd5b5050565b60008111610b4c576040517f08c379a0000000000000000000000000000000000000000000000000000000008152600401610b4390611aa6565b60405180910390fd5b6002600083815260200190815260200160002060020160149054906101000a900460ff16610baf576040517f08c379a0000000000000000000000000000000000000000000000000000000008152600401610ba690611b38565b60405180910390fd5b6002600083815260200190815260200160002060010154341015610c08576040517f08c379a0000000000000000000000000000000000000000000000000000000008152600401610bff90611ba4565b60405180910390fd5b6040518060400160405280828152602001428152506004600084815260200190815260200160002060003373ffffffffffffffffffffffffffffffffffffffff1673ffffffffffffffffffffffffffffffffffffffff16815260200190815260200160002060008201518160000155602082015181600101559050506002600083815260200190815260200160002060020160009054906101000a900473ffffffffffffffffffffffffffffffffffffffff1673ffffffffffffffffffffffffffffffffffffffff166108fc349081150290604051600060405180830381858888f19350505050158015610d00573d6000803e3d6000fd5b50813373ffffffffffffffffffffffffffffffffffffffff166002600085815260200190815260200160002060020160009054906101000a900473ffffffffffffffffffffffffffffffffffffffff1673ffffffffffffffffffffffffffffffffffffffff167f0272b166b73a02517c60185e00228a30457145ed153fd6134c2d769569b5211e84604051610d9591906110cb565b60405180910390a460006002600084815260200190815260200160002060020160146101000a81548160ff0219169083151502179055505050565b508054610ddc906113d6565b6000825580601f10610dee5750610e0d565b601f016020900490600052602060002090810190610e0c9190610e10565b5b50565b5b80821115610e29576000816000905550600101610e11565b5090565b6000604051905090565b600080fd5b600080fd5b6000819050919050565b610e5481610e41565b8114610e5f57600080fd5b50565b600081359050610e7181610e4b565b92915050565b600060208284031215610e8d57610e8c610e37565b5b6000610e9b84828501610e62565b91505092915050565b600081519050919050565b600082825260208201905092915050565b60005b83811015610ede578082015181840152602081019050610ec3565b60008484015250505050565b6000601f19601f8301169050919050565b6000610f0682610ea4565b610f108185610eaf565b9350610f20818560208601610ec0565b610f2981610eea565b840191505092915050565b610f3d81610e41565b82525050565b600073ffffffffffffffffffffffffffffffffffffffff82169050919050565b6000610f6e82610f43565b9050919050565b610f7e81610f63565b82525050565b60008115159050919050565b610f9981610f84565b82525050565b60006080820190508181036000830152610fb98187610efb565b9050610fc86020830186610f34565b610fd56040830185610f75565b610fe26060830184610f90565b95945050505050565b600081519050919050565b600082825260208201905092915050565b6000819050602082019050919050565b61102081610e41565b82525050565b60006110328383611017565b60208301905092915050565b6000602082019050919050565b600061105682610feb565b6110608185610ff6565b935061106b83611007565b8060005b8381101561109c5781516110838882611026565b975061108e8361103e565b92505060018101905061106f565b5085935050505092915050565b600060208201905081810360008301526110c3818461104b565b905092915050565b60006020820190506110e06000830184610f34565b92915050565b60006020820190506110fb6000830184610f75565b92915050565b61110a81610f63565b811461111557600080fd5b50565b60008135905061112781611101565b92915050565b6000806040838503121561114457611143610e37565b5b600061115285828601610e62565b925050602061116385828601611118565b9150509250929050565b60006040820190506111826000830185610f34565b61118f6020830184610f34565b9392505050565b600080fd5b600080fd5b7f4e487b7100000000000000000000000000000000000000000000000000000000600052604160045260246000fd5b6111d882610eea565b810181811067ffffffffffffffff821117156111f7576111f66111a0565b5b80604052505050565b600061120a610e2d565b905061121682826111cf565b919050565b600067ffffffffffffffff821115611236576112356111a0565b5b61123f82610eea565b9050602081019050919050565b82818337600083830152505050565b600061126e6112698461121b565b611200565b90508281526020810184848401111561128a5761128961119b565b5b61129584828561124c565b509392505050565b600082601f8301126112b2576112b1611196565b5b81356112c284826020860161125b565b91505092915050565b600080604083850312156112e2576112e1610e37565b5b600083013567ffffffffffffffff811115611300576112ff610e3c565b5b61130c8582860161129d565b925050602061131d85828601610e62565b9150509250929050565b6000806040838503121561133e5761133d610e37565b5b600061134c85828601611118565b925050602061135d85828601610e62565b9150509250929050565b6000806040838503121561137e5761137d610e37565b5b600061138c85828601610e62565b925050602061139d85828601610e62565b9150509250929050565b7f4e487b7100000000000000000000000000000000000000000000000000000000600052602260045260246000fd5b600060028204905060018216806113ee57607f821691505b602082108103611401576114006113a7565b5b50919050565b7f4e6f2062616c616e636520746f20776974686472617700000000000000000000600082015250565b600061143d601683610eaf565b915061144882611407565b602082019050919050565b6000602082019050818103600083015261146c81611430565b9050919050565b7f4461746120646f6573206e6f7420657869737400000000000000000000000000600082015250565b60006114a9601383610eaf565b91506114b482611473565b602082019050919050565b600060208201905081810360008301526114d88161149c565b9050919050565b7f4e487b7100000000000000000000000000000000000000000000000000000000600052601160045260246000fd5b600061151982610e41565b915061152483610e41565b925082820190508082111561153c5761153b6114df565b5b92915050565b7f4f776e657273686970206e6f7420657870697265642079657400000000000000600082015250565b6000611578601983610eaf565b915061158382611542565b602082019050919050565b600060208201905081810360008301526115a78161156b565b9050919050565b7f4465736372697074696f6e2063616e6e6f7420626520656d7074790000000000600082015250565b60006115e4601b83610eaf565b91506115ef826115ae565b602082019050919050565b60006020820190508181036000830152611613816115d7565b9050919050565b7f50726963652073686f756c642062652067726561746572207468616e207a657260008201527f6f00000000000000000000000000000000000000000000000000000000000000602082015250565b6000611676602183610eaf565b91506116818261161a565b604082019050919050565b600060208201905081810360008301526116a581611669565b9050919050565b60008190508160005260206000209050919050565b60006020601f8301049050919050565b600082821b905092915050565b60006008830261170e7fffffffffffffffffffffffffffffffffffffffffffffffffffffffffffffffff826116d1565b61171886836116d1565b95508019841693508086168417925050509392505050565b6000819050919050565b600061175561175061174b84610e41565b611730565b610e41565b9050919050565b6000819050919050565b61176f8361173a565b61178361177b8261175c565b8484546116de565b825550505050565b600090565b61179861178b565b6117a3818484611766565b505050565b5b818110156117c7576117bc600082611790565b6001810190506117a9565b5050565b601f82111561180c576117dd816116ac565b6117e6846116c1565b810160208510156117f5578190505b611809611801856116c1565b8301826117a8565b50505b505050565b600082821c905092915050565b600061182f60001984600802611811565b1980831691505092915050565b6000611848838361181e565b9150826002028217905092915050565b61186182610ea4565b67ffffffffffffffff81111561187a576118796111a0565b5b61188482546113d6565b61188f8282856117cb565b600060209050601f8311600181146118c257600084156118b0578287015190505b6118ba858261183c565b865550611922565b601f1984166118d0866116ac565b60005b828110156118f8578489015182556001820191506020850194506020810190506118d3565b868310156119155784890151611911601f89168261181e565b8355505b6001600288020188555050505b505050505050565b600061193582610e41565b91507fffffffffffffffffffffffffffffffffffffffffffffffffffffffffffffffff8203611967576119666114df565b5b600182019050919050565b6000604082019050818103600083015261198c8185610efb565b905061199b6020830184610f34565b9392505050565b7f4f6e6c79206f776e65722063616e20706572666f726d2074686973206163746960008201527f6f6e000000000000000000000000000000000000000000000000000000000000602082015250565b60006119fe602283610eaf565b9150611a09826119a2565b604082019050919050565b60006020820190508181036000830152611a2d816119f1565b9050919050565b7f4475726174696f6e2073686f756c642062652067726561746572207468616e2060008201527f7a65726f00000000000000000000000000000000000000000000000000000000602082015250565b6000611a90602483610eaf565b9150611a9b82611a34565b604082019050919050565b60006020820190508181036000830152611abf81611a83565b9050919050565b7f44617461736574206e6f7420617661696c61626c6520666f72206c656173696e60008201527f6700000000000000000000000000000000000000000000000000000000000000602082015250565b6000611b22602183610eaf565b9150611b2d82611ac6565b604082019050919050565b60006020820190508181036000830152611b5181611b15565b9050919050565b7f496e73756666696369656e74207061796d656e74000000000000000000000000600082015250565b6000611b8e601483610eaf565b9150611b9982611b58565b602082019050919050565b60006020820190508181036000830152611bbd81611b81565b905091905056fea2646970667358221220ab1c802e2545d366e38f0b79d25d0332ee69857ea16f4c9a6bce04f505bf296364736f6c63430008140033",
  "linkReferences": {},
  "deployedLinkReferences": {}
}